:1000000009C016C01DC1C8C113C012C011C010C0A4
:100010000FC00EC011241FBECFE9CDBF10E0A0E677
:10002000B0E001C01D92A736B107E1F71BD0E1C1D6
:10003000E7CF88E893E128E730E0F9013197F1F75D
:100040000197D9F7089580E197E228E730E0F901B8
:100050003197F1F70197D9F70895F89490E0BBD163
:1000600078940895CF92DF92EF92FF920F931F93AF
:10007000CF93DF93D4D088E090E0A5D1182F8AE009
:1000800090E0A1D1F82E8EE087BB81E088BB789408
:10009000E12ECC24C394C8E7D0E09FE0D92E5CC009
:1000A000123079F0133020F4113009F039C006C055
:1000B000133049F0143009F033C017C083E088BB17
:1000C00032C0D8BA30C0C8BAF89488E090E063E093
:1000D00082D1789480E197E2FE013197F1F70197A0
:1000E000D9F71092640014E01EC081E088BBF89438
:1000F00088E090E061E06FD1789428E730E0C39A1F
:1001000080E197E2F9013197F1F70197D9F7C398A8
:1001100080E197E2F9013197F1F70197D9F7EFCF35
:1001200014E084E0F82EE11691F0143081F0F89498
:1001300088E090E0612F4FD1789488E893E1FE0148
:100140003197F1F70197D9F70F2DE12E04C00F2D4C
:1001500002C00F2D12E0F02E80916400882309F474
:100160009FCF10926400809162008B3029F500913E
:1001700066000E7FC39A88E893E1FE013197F1F79C
:100180000197D9F7F8948AE090E0602F24D1789411
:10019000C39888E893E1FE013197F1F70197D9F709
:1001A000C39A88E893E1FE013197F1F70197D9F7F7
:1001B000C3981092640031C0113021F0123009F060
:1001C000C6CF18C0B09B10C080916200873009F084
:1001D000BECF2091660030E08F2D90E00196281769
:1001E000390709F0B4CFB5CF80916600813009F0AE
:1001F000AECFAFCFB09B0BC080916200873009F0CB
:10020000A6CF009166000F1509F0A1CF06C080911E
:100210006600823009F09BCF0F2D11E09CCF109229
:10022000650010926400222483B7836083BF12BEEE
:1002300089B7826089BF8BB780628BBFAC9A089503
:100240001F920F920FB60F9211242F933F934F934B
:100250005F938F939F9382B72091630040916000DA
:1002600050916100480F511D922F80E0480F591F97
:10027000509361004093600012BE10926300809121
:1002800065008230D1F0833034F4882351F081301E
:1002900009F077C00AC0833021F1843009F071C0C1
:1002A0003FC0B4996CC081E038C0CA018855904005
:1002B0008F9708F058C082E030C0CA01885590403E
:1002C0008F9708F050C095E0292E1092620010928E
:1002D0006600109261001092600083E080936500D8
:1002E00050C0CA01885590408F97E8F5322D3150A3
:1002F000232EB4990DC02091620081E090E0032E7E
:1003000002C0880F991F0A94E2F7282B20936200FD
:10031000332321F586E0282E84E0809365001EC0FB
:10032000CA01885590408F97F0F4322D3150232E1A
:10033000B4990DC02091660081E090E0032E02C0C8
:10034000880F991F0A94E2F7282B20936600332325
:1003500029F481E08093640010926500109261009E
:10036000109260000EC0405250404F32510538F498
:1003700087E390E0909361008093600002C0109248
:1003800065009F918F915F914F913F912F910F90B9
:100390000FBE0F901F9018951F920F920FB60F92DD
:1003A00011248F93809163008F5F8093630080910D
:1003B0006300833310F0109265008F910F900FBE91
:1003C0000F901F901895E199FECF1FBA8EBBE09A4F
:1003D00099278DB30895262FE199FECF1CBA1FBA35
:1003E0008EBB2DBB0FB6F894E29AE19A0FBE019630
:0603F0000895F894FFCF10
:00000001FF
