:100000000C9434000C94C0020C9446000C944600EE
:100010000C94A5020C94B4020C9446000C94460077
:100020000C9446000C9446000C9446000C94460038
:100030000C9446000C9446000C9446000C94460028
:100040000C9446000C9446000C9446000C94460018
:100050000C9446000C9446000C9446000C94460008
:100060000C9446000C94460011241FBECFEFD4E040
:10007000DEBFCDBF21E0A0E0B1E001C01D92A23003
:10008000B207E1F70E9435020C9498030C9400002B
:1000900084B18F6084B908959FEF980F9430D0F4A5
:1000A00090E045B1019721E030E061110AC0B9014B
:1000B00002C0660F771F8A95E2F7CB0180958423F3
:1000C00008C0B90102C0660F771F8A95E2F7CB011D
:1000D000842B85B90895811103C085B1807F02C04A
:1000E00085B18F6085B90895CF930E949303C82F7F
:1000F00061E081E0C23048F00E944C006C2F660F36
:1001000042E08BE00E942E031CC00E944C002FEFA7
:1001100082E597E0215080409040E1F700C0000068
:1001200060E081E00E944C002FEF82E597E02150D3
:1001300080409040E1F700C0000061E081E00E9453
:100140004C002FEF82E597E0215080409040E1F78E
:1001500000C0000060E081E00E944C002FEF82E5CB
:1001600097E0215080409040E1F700C00000CF911F
:1001700008951F93CF93DF93C82F0E949303D82F26
:1001800061E083E0D130B1F50E944C002FEF82E5B1
:1001900097E0215080409040E1F700C0000060E00F
:1001A00083E00E944C002FEF82E597E021508040D1
:1001B0009040E1F700C0000061E083E00E944C0045
:1001C0002FEF82E597E0215080409040E1F700C09A
:1001D000000060E083E00E944C002FEF82E597E092
:1001E000215080409040E1F700C00000DF91CF91A6
:1001F0001F9108950E944C00CF5F1D2F110F1160B9
:10020000CC23D1F061E084E00E944C0041E0D111A8
:1002100003C061E08DE002C0612F87E00E942E03E1
:1002200060E084E00E944C008FE59AEE0197F1F7C0
:1002300000C00000C150E4CF60E083E0DF91CF91C7
:100240001F910C944C001F93CF93DF93C82F0E94F3
:100250009303D82F61E082E0D130B1F50E944C00C9
:100260002FEF82E597E0215080409040E1F700C0F9
:10027000000060E082E00E944C002FEF82E597E0F2
:10028000215080409040E1F700C0000061E082E032
:100290000E944C002FEF82E597E021508040904073
:1002A000E1F700C0000060E082E00E944C002FEF08
:1002B00082E597E0215080409040E1F700C00000C7
:1002C000DF91CF911F9108950E944C00CF5F1D2FA9
:1002D000110FCC23E9F061E084E00E944C0041E082
:1002E000D11103C062E08DE002C0612F87E00E945F
:1002F0002E0360E084E00E944C002FE788EC92E03F
:10030000215080409040E1F700C00000C150E1CF93
:1003100060E082E0DF91CF911F910C944C008091BE
:1003200064008F6E8093640088B1817C88B980916D
:1003300069008C7F80936900E89A809168008660EC
:100340008093680080916D00826080936D00809141
:100350006C00816080936C00789483B7856083BF64
:10036000889583B78E7F83BFF894809164008E7FD9
:100370008093640080917C008E6680937C008091E5
:100380007A00806880937A008FE097E20197F1F716
:1003900000C0000080917A00806480937A00809190
:1003A0007A0084FFFCCF80917A00806180937A008C
:1003B00080917A008F7780937A00809179008437DA
:1003C00008F44AC081E00E946B009FEF22E587E0BD
:1003D000915020408040E1F700C0000080E00E9482
:1003E0006B009FEF22E587E0915020408040E1F7CD
:1003F00000C0000081E00E946B009FEF22E587E0D3
:10040000915020408040E1F700C0000080E00E9451
:100410006B009FEF22E587E0915020408040E1F79C
:1004200000C0000081E00E946B009FEF22E587E0A2
:10043000915020408040E1F700C0000080E00E9421
:100440006B009FEF22E587E0915020408040E1F76C
:1004500000C000000E948F01809164008F7980931A
:10046000640088B18E6788B9089590E080E80FB67F
:10047000F89480936100909361000FBE0E94CF02B8
:100480000E9484030E944800809100018230B9F4E8
:100490004A991BC08FE19EE40197F1F700C000006C
:1004A0004A9904C081E00E942301FACF4A9BFECF03
:1004B0008FE19EE40197F1F700C00000E9CF809141
:1004C00000018130F1F4309B08C09FEF20E782E00B
:1004D000915020408040E1F733C08FE19EE40197C6
:1004E000F1F700C00000309903C083E00E94B9001A
:1004F000309BFECF8FE19EE40197F1F700C0000032
:10050000E2CF8091000181111DC0499912C08FE195
:100510009EE40197F1F700C00000499B0E9474001F
:10052000499BFECF8FE19EE40197F1F700C00000E8
:10053000ECCF9FEF21EE84E0915020408040E1F726
:1005400000C000000E948F019FCF1F920F920FB634
:100550000F9211248F9381E0809300018F910F906F
:100560000FBE0F901F9018951F920F920FB60F920B
:100570001124109200010F900FBE0F901F9018953C
:100580001F920F920FB60F9211248F9382E08093E7
:1005900000018F910F900FBE0F901F901895539AE6
:1005A000E0EBF0E0808182608083E1EBF0E080812D
:1005B0008160808399E69093B300559A84B58260F8
:1005C00084BD85B5816085BD97BD0895813021F4D6
:1005D00084B5806184BD0895823029F48091B00093
:1005E00080618093B0000895813029F484B58F7EB6
:1005F00084BD5D980895823031F48091B0008F7E83
:100600008093B0005B980895CF93C82F0E94F402A6
:1006100081EF96E00197F1F700C000008C2F0E9457
:10062000E60281EF96E00197F1F700C00000CF915C
:100630000895CF93C82F0E94E60281EF96E00197BC
:10064000F1F700C000008C2F0E94F40281EF96E0C9
:100650000197F1F700C00000CF910895CF92DF928B
:10066000EF92FF920F931F93CF93C82EE62EC42FC5
:10067000842F0E9404038C2F0E94040380910101A7
:10068000882331F0109201018C2F0E94040306C0D0
:1006900081E0809301018C2F0E94190304E010E097
:1006A000D12CC601002E02C0959587950A94E2F7D9
:1006B00080FF04C08C2F0E94040303C08C2F0E9473
:1006C00019030150110968F705E010E0F12CC7018A
:1006D000002E02C0959587950A94E2F780FF04C02A
:1006E0008C2F0E94040303C08C2F0E941903015019
:1006F000110968F78C2FCF911F910F91FF90EF9008
:10070000DF90CF900C94F4028AB1897F8AB938982F
:100710008BB186608BB9409A87B1817C87B988B1EB
:100720008E6388B9089586B1869580958F710895F6
:04073000F894FFCF6B
:00000001FF
