:1000000036C0000081C300006EC300006CC3000056
:100010006BC300006FC3000066C3000064C3000030
:1000200062C3000060C300005EC300005CC3000048
:100030005AC3000058C3000056C3000054C3000058
:1000400052C3000050C300004EC300004CC3000068
:100050004AC3000048C3000046C3000044C3000078
:1000600042C3000040C300000100010280001124CF
:100070001FBECFEFD4E0DEBFCDBFE8E6F0E040E04A
:1000800017C0B591A59135912591059107FD0CC03B
:1000900095918591EF01F92FE82F05900D92A21708
:1000A000B307D9F7FE0104C01D92A217B307E1F709
:0E00B000ED36F40731F70AD002C0F894FFCF06
:0E00BE00EC013DD039D0CE0138D0CE0137D084
:1000CC0090E080E80FB6F894809361009093610003
:1000DC000FBEFFD13ED19AD012C080910001813069
:1000EC00F9F0809100018823B9F02FE788E391E0C3
:1000FC00215080409040E1F700C000008BD08091EF
:10010C000001823051F781E014D04A99EECF81E0A2
:10011C0010D04A9BF8CFE9CF2BD1499BFECFE5CF2E
:0A012C0083E06CD1309BFECFE0CFE2
:0201360008952A
:02013800089528
:02013A00BFDF25
:02013C00089524
:10013E001F93CF93DF93C82F76D2D82F803109F437
:10014E005DC061E082E0D13039F1D9D1CF5FF1F0FD
:10015E001D2F110F11C062E08DE0F2D160E084E03E
:10016E00CED12FE788EC92E0215080409040E1F70D
:10017E0000C00000C15051F061E084E0C0D141E008
:10018E00DD2349F3612F87E0DBD1E8CF60E082E029
:10019E00DF91CF911F91B3C1B2D12FEF82E597E0DE
:1001AE00215080409040E1F700C0000060E082E006
:1001BE00A6D12FEF82E597E0215080409040E1F7E5
:1001CE0000C0000061E082E09AD12FEF82E597E057
:1001DE00215080409040E1F700C0000060E082E0D6
:1001EE008ED12FEF82E597E0215080409040E1F7CD
:1001FE0000C00000DF91CF911F91089542E062E0B0
:0A020E008C2FDF91CF911F91E8C102
:0802180084B18F6084B90895E0
:10022000809164008F6E8093640088B1817C88B96E
:10023000809169008C7F80936900E89A80916800C2
:1002400086608093680080916D00826080936D006D
:1002500080916C00816080936C00789483B7856096
:1002600083BF889583B78E7F83BFF89480916400A5
:100270008E7F8093640080917C008E6680937C00EA
:1002800080917A00806880937A008FE097E20197EE
:10029000F1F700C0000080917A00806480937A00BA
:1002A00080917A0084FFFCCF80917A0080618093F6
:1002B0007A0080917A008F7780937A00809179001C
:1002C000843708F443C081E0BAD19FEF22E587E08C
:1002D000915020408040E1F700C0000080E0AFD1A5
:1002E0009FEF22E587E0915020408040E1F700C079
:1002F000000081E0A4D19FEF22E587E091502040EB
:100300008040E1F700C0000080E099D19FEF22E536
:1003100087E0915020408040E1F700C0000081E07C
:100320008ED19FEF22E587E0915020408040E1F799
:1003300000C0000080E083D19FEF22E587E091506C
:1003400020408040E1F700C000006ADF8091640037
:0E0350008F798093640088B18E6788B9089514
:10035E008AB1897F8AB938988BB186608BB9409AF9
:0E036E0087B1817C87B988B18E6388B9089504
:10037C00CF935AD1C82F803109F43BC061E081E0A2
:10038C00C230E8F0BDD06C2F660F42E08BE0D9D0C4
:10039C002FEF82E597E0215080409040E1F700C0BC
:1003AC00000060E081E0ACD02FEF82E597E02150B7
:1003BC0080409040E1F700C00000CF910895A0D09C
:1003CC002FEF82E597E0215080409040E1F700C08C
:1003DC00000060E081E094D02FEF82E597E021509F
:1003EC0080409040E1F700C0000061E081E088D0DF
:0C03FC00CFCF41E061E083E0CF91F0C082
:100408001F93CF93DF93C82F11D1D82F803109F4D0
:100418005BC061E083E0D13029F174D0CF5FE1F0B7
:100428001D2F110F11600EC061E08DE08CD060E0CF
:1004380084E068D08FE59AEE0197F1F700C00000DC
:10044800C15051F061E084E05DD041E0DD2361F30B
:10045800612F87E078D0EBCF60E083E0DF91CF9128
:100468001F9150C04FD02FEF82E597E02150804078
:100478009040E1F700C0000060E083E043D02FEF38
:1004880082E597E0215080409040E1F700C00000ED
:1004980061E083E037D02FEF82E597E0215080407C
:1004A8009040E1F700C0000060E083E02BD02FEF20
:1004B80082E597E0215080409040E1F700C00000BD
:1004C800DF91CF911F91089543E063E08C2FDF9176
:0604D800CF911F9185C0C9
:1004DE00539AE0EBF0E0808182608083E1EBF0E004
:1004EE0080818160808399E69093B300559A84B59C
:0E04FE00826084BD85B5816085BD97BD08957F
:10050C009FEF980F943078F445B1662369F08150D1
:10051C0021E030E0B90102C0660F771F8A95E2F73F
:10052C00CB01842B85B9089521E030E0B90102C0DC
:10053C00660F771F9A95E2F7CB018095842385B9D6
:02054C00089510
:10054E00CF92DF92EF92FF921F93CF93DF93C82E3D
:10055E00E62E142F842F76D0812F74D08091010136
:10056E00882309F434C010920101812F6BD0D12C55
:10057E00C4E0D0E096010C2E02C0359527950A9462
:10058E00E2F7812F20FF21C05DD0219798F7F12C43
:10059E00C5E0D0E004C0812F55D0219768F0C70187
:1005AE000C2E02C0959587950A94E2F780FDF3CF45
:1005BE00812F66D0219798F7812FDF91CF911F91D0
:1005CE00FF90EF90DF90CF9076C05AD0DECF81E0D3
:0A05DE0080930101812F54D0CACF91
:1005E8001F93CF93DF93C82F162FD42F61E0812F4D
:1005F80089DFCF5FA9F061E084E084DF41E06D2FFF
:100608008FE0A1DF60E084E07DDF2FE788EC92E0F7
:10061800215080409040E1F700C00000C15059F7D8
:0C06280060E0812FDF91CF911F916CCF1B
:0A06340086B1869580958F710895B8
:10063E00882321F085B18F6085B9089585B1807FBB
:04064E0085B90895CD
:10065200CF93C82F36D081EF96E00197F1F700C013
:100662000000C13079F0C23029F48091B00080617D
:100672008093B00081EF96E00197F1F700C000008F
:0C068200CF91089584B5806184BDF4CF51
:10068E008130A9F0823029F49091B000906190935E
:10069E00B000E1EFF6E03197F1F700C000000BD0AB
:1006AE0081EF96E00197F1F700C00000089594B530
:0606BE00906194BDEECF37
:1006C400813051F0823009F008958091B0008F7E1E
:1006D4008093B0005B98089584B58F7E84BD5D9847
:0206E400089577
:0206E6008CCCBA
:0C06E8008F9381E0809300018F911895A2
:1006F4001F921FB61F921124109200011F901FBE5B
:040704001F90189595
:0C0708008F9382E0809300018F91189580
:00000001FF
