:1000000036C00000B3C30000A0C300009EC30000C0
:100010009DC30000A1C3000098C3000096C3000068
:1000200094C3000092C3000090C300008EC3000080
:100030008CC300008AC3000088C3000086C3000090
:1000400084C3000082C3000080C300007EC30000A0
:100050007CC300007AC3000078C3000076C30000B0
:1000600074C3000072C3000001000102800011246B
:100070001FBECFEFD4E0DEBFCDBFE8E6F0E040E04A
:1000800017C0B591A59135912591059107FD0CC03B
:1000900095918591EF01F92FE82F05900D92A21708
:1000A000B307D9F7FE0104C01D92A217B307E1F709
:0E00B000ED36F40731F70AD002C0F894FFCF06
:0E00BE00EC017DD079D0CE0178D0CE0177D084
:1000CC0090E080E80FB6F894809361009093610003
:1000DC000FBE3CD26ED07CD00AC080910001813022
:1000EC0009F444C080910001882351F175D08091AE
:1000FC000001823091F74A9916C083EC99E0019780
:10010C00F1F700C000004A9904C081E004D14A9B79
:10011C00FCCF4A9BFECF83EC99E00197F1F700C02E
:10012C0000004A9BEACF87EA91E60197F1F700C0FD
:10013C000000DCCF83EC99E00197F1F700C00000E0
:10014C0049990DC083EC99E00197F1F700C00000CC
:10015C00499B03C0499BFECFEDCF47D1FBCF8FE42A
:10016C0093EC0197F1F700C00000C0CF3099DBCFC2
:10017C0083EC99E00197F1F700C00000309B12C0AE
:10018C00309BFECF83EC99E00197F1F700C00000A3
:10019C003099C9CF83EC99E00197F1F700C00000CA
:0A01AC003099EECF83E067D1EBCF6E
:0201B6000895AA
:0201B8000895A8
:0201BA007FDFE5
:0201BC000895A4
:1001BE008AB1897F8AB938988BB186608BB9409A9B
:0E01CE0087B1817C87B988B18E6388B90895A6
:0801DC0084B18F6084B908951D
:1001E400809164008F6E8093640088B1817C88B9AB
:1001F400809169008C7F80936900E89A80916800FF
:1002040086608093680080916D00826080936D00A9
:1002140080916C00816080936C00789483B78560D2
:1002240083BF889583B78E7F83BFF89480916400E1
:100234008E7F8093640080917C008E6680937C0026
:1002440080917A00806880937A0081EE94E001972F
:10025400F1F700C0000080917A00806480937A00F6
:1002640080917A0084FFFCCF80917A008061809332
:100274007A0080917A008F7780937A008091790058
:10028400843708F443C081E07CD19FE52AEE80E006
:10029400915020408040E1F700C0000080E071D11F
:1002A4009FE52AEE80E0915020408040E1F700C0B5
:1002B400000081E066D19FE52AEE80E09150204065
:1002C4008040E1F700C0000080E05BD19FE52AEEAA
:1002D40080E0915020408040E1F700C0000081E0C0
:1002E40050D19FE52AEE80E0915020408040E1F714
:1002F40000C0000080E045D19FE52AEE80E09150E7
:1003040020408040E1F700C000006ADF8091640073
:0E0314008F798093640088B18E6788B9089550
:100322001F93CF93DF93C82FC8D1D82F803109F400
:100332005AC061E082E0D13021F12ED1CF5FD9F0F5
:100342001D2F110F0EC062E08DE047D160E084E006
:1003520023D183E59FE60197F1F700C00000C15069
:1003620051F061E084E018D141E0DD2361F3612FB7
:1003720087E033D1EBCF60E082E0DF91CF911F9134
:100382000BC10AD12FE58AEE90E0215080409040C7
:10039200E1F700C0000060E082E0FED02FE58AEEC7
:1003A20090E0215080409040E1F700C0000061E001
:1003B20082E0F2D02FE58AEE90E02150804090401A
:1003C200E1F700C0000060E082E0E6D02FE58AEEAF
:1003D20090E0215080409040E1F700C00000DF91A2
:1003E200CF911F91089542E062E08C2FDF91CF916F
:0403F2001F9140C156
:1003F600CF9361D1C82F803109F43BC061E081E021
:10040600C230E8F0C7D06C2F660F42E08BE0E3D035
:100416002FE58AEE90E0215080409040E1F700C041
:10042600000060E081E0B6D02FE58AEE90E0215032
:1004360080409040E1F700C00000CF910895AAD017
:100446002FE58AEE90E0215080409040E1F700C011
:10045600000060E081E09ED02FE58AEE90E021501A
:1004660080409040E1F700C0000061E081E092D05A
:0C047600CFCF41E061E083E0CF91FAC0FD
:100482001F93CF93DF93C82F18D1D82F803109F44F
:100492005BC061E083E0D13029F17ED0CF5FE1F033
:1004A2001D2F110F11600EC061E08DE096D060E04B
:1004B20084E072D08BE49DE10197F1F700C0000067
:1004C200C15051F061E084E067D041E0DD2361F387
:1004D200612F87E082D0EBCF60E083E0DF91CF91A4
:1004E2001F915AC059D02FE58AEE90E021508040EA
:1004F2009040E1F700C0000060E083E04DD02FE5BE
:100502008AEE90E0215080409040E1F700C0000068
:1005120061E083E041D02FE58AEE90E021508040F7
:100522009040E1F700C0000060E083E035D02FE5A5
:100532008AEE90E0215080409040E1F700C0000038
:10054200DF91CF911F91089543E063E08C2FDF91FB
:06055200CF911F918FC044
:10055800539AE0EBF0E0808182608083E1EBF0E089
:1005680080818160808399E69093B300559A84B521
:0E057800826084BD85B5816085BD97BD089504
:10058600882321F085B18F6085B9089585B1807F74
:0405960085B9089586
:10059A009FEF980F943078F445B1662369F0815043
:1005AA0021E030E0B90102C0660F771F8A95E2F7B1
:1005BA00CB01842B85B9089521E030E0B90102C04E
:1005CA00660F771F9A95E2F7CB018095842385B948
:0205DA00089582
:1005DC00CF92DF92EF92FF921F93CF93DF93C82EAF
:1005EC00E62E142F842F69D0812F67D080910101C2
:1005FC00882309F434C010920101812F5ED0D12CD4
:10060C00C4E0D0E096010C2E02C0359527950A94D3
:10061C00E2F7812F20FF21C050D0219798F7F12CC1
:10062C00C5E0D0E004C0812F48D0219768F0C70105
:10063C000C2E02C0959587950A94E2F780FDF3CFB6
:10064C00812F55D0219798F7812FDF91CF911F9152
:10065C00FF90EF90DF90CF9061C049D0DECF81E06A
:0A066C0080930101812F43D0CACF13
:100676001F93CF93DF93C82F162FD42F61E0812FBE
:1006860089DFCF5F91F061E084E084DF41E06D2F88
:100696008FE0A1DF60E084E07DDF83E59FE60197E0
:1006A600F1F700C00000C15071F760E0812FDF91C3
:0606B600CF911F916FCFF0
:0A06BC0086B1869580958F71089530
:1006C600CF93C82F2ED08EED90E00197F1F7C13071
:1006D60069F0C23029F48091B00080618093B00047
:1006E6008EED90E00197F1F7CF91089584B5806182
:0406F60084BDF6CFFA
:1006FA00813089F0823029F49091B0009061909312
:10070A00B000EEEDF0E03197F1F709D08EED90E010
:0E071A000197F1F7089594B5906194BDF2CF68
:10072800813051F0823009F008958091B0008F7EB9
:100738008093B0005B98089584B58F7E84BD5D98E2
:02074800089512
:02074A005ACC87
:0C074C008F9381E0809300018F9118953D
:100758001F921FB61F921124109200011F901FBEF6
:040768001F90189531
:0C076C008F9382E0809300018F9118951C
:00000001FF
