:1000000036C00000C7C30000B4C30000B2C3000084
:10001000B1C30000B5C30000ACC30000AAC3000018
:10002000A8C30000A6C30000A4C30000A2C3000030
:10003000A0C300009EC300009CC300009AC3000040
:1000400098C3000096C3000094C3000092C3000050
:1000500090C300008EC300008CC300008AC3000060
:1000600088C3000086C30000010001028000112443
:100070001FBECFEFD4E0DEBFCDBFE8E6F0E040E04A
:1000800017C0B591A59135912591059107FD0CC03B
:1000900095918591EF01F92FE82F05900D92A21708
:1000A000B307D9F7FE0104C01D92A217B307E1F709
:0E00B000ED36F40731F70AD002C0F894FFCF06
:0E00BE00EC0183D07FD0CE017ED0CE017DD06C
:1000CC0090E080E80FB6F894809361009093610003
:1000DC000FBE45D274D082D00AC08091000181300D
:1000EC0009F44AC080910001882369F17BD080918A
:1000FC000001823091F74A9916C08FE19EE4019776
:10010C00F1F700C000004A9904C081E00AD14A9B73
:10011C00FCCF4A9BFECF8FE19EE40197F1F700C024
:10012C0000004A9BEACF2FEF80E792E021508040FD
:10013C009040E1F700C00000D9CF8FE19EE4019719
:10014C00F1F700C0000049990DC08FE19EE40197C2
:10015C00F1F700C00000499B03C0499BFECFEDCFD7
:10016C004DD1FBCF9FEF21EE84E091502040804099
:10017C00E1F700C00000BACF3099D5CF8FE19EE4F3
:10018C000197F1F700C00000309B12C0309BFECFEE
:10019C008FE19EE40197F1F700C000003099C3CFC6
:1001AC008FE19EE40197F1F700C000003099EECF8B
:0601BC0083E06AD1EBCFE5
:0201C20008959E
:0201C40008959C
:0201C60079DFDF
:0201C800089598
:1001CA008AB1897F8AB938988BB186608BB9409A8F
:0E01DA0087B1817C87B988B18E6388B908959A
:0801E80084B18F6084B9089511
:1001F000809164008F6E8093640088B1817C88B99F
:10020000809169008C7F80936900E89A80916800F2
:1002100086608093680080916D00826080936D009D
:1002200080916C00816080936C00789483B78560C6
:1002300083BF889583B78E7F83BFF89480916400D5
:100240008E7F8093640080917C008E6680937C001A
:1002500080917A00806880937A008FE097E201971E
:10026000F1F700C0000080917A00806480937A00EA
:1002700080917A0084FFFCCF80917A008061809326
:100280007A0080917A008F7780937A00809179004C
:10029000843708F443C081E07FD19FEF22E587E0F7
:1002A000915020408040E1F700C0000080E074D110
:1002B0009FEF22E587E0915020408040E1F700C0A9
:1002C000000081E069D19FEF22E587E09150204056
:1002D0008040E1F700C0000080E05ED19FEF22E5A2
:1002E00087E0915020408040E1F700C0000081E0AD
:1002F00053D19FEF22E587E0915020408040E1F705
:1003000000C0000080E048D19FEF22E587E09150D7
:1003100020408040E1F700C000006ADF8091640067
:0E0320008F798093640088B18E6788B9089544
:10032E001F93CF93DF93C82FCED1D82F803109F4EE
:10033E005DC061E082E0D13039F131D1CF5FF1F0B3
:10034E001D2F110F11C062E08DE04AD160E084E0F4
:10035E0026D12FE788EC92E0215080409040E1F7C3
:10036E0000C00000C15051F061E084E018D141E0BE
:10037E00DD2349F3612F87E033D1E8CF60E082E0DF
:10038E00DF91CF911F910BC10AD12FEF82E597E03C
:10039E00215080409040E1F700C0000060E082E014
:1003AE00FED02FEF82E597E0215080409040E1F79C
:1003BE0000C0000061E082E0F2D02FEF82E597E00E
:1003CE00215080409040E1F700C0000060E082E0E4
:1003DE00E6D02FEF82E597E0215080409040E1F784
:1003EE0000C00000DF91CF911F91089542E062E0BE
:0A03FE008C2FDF91CF911F9140C1B9
:10040800CF9364D1C82F803109F43BC061E081E00B
:10041800C230E8F0C7D06C2F660F42E08BE0E3D023
:100428002FEF82E597E0215080409040E1F700C02F
:10043800000060E081E0B6D02FEF82E597E0215020
:1004480080409040E1F700C00000CF910895AAD005
:100458002FEF82E597E0215080409040E1F700C0FF
:10046800000060E081E09ED02FEF82E597E0215008
:1004780080409040E1F700C0000061E081E092D048
:0C048800CFCF41E061E083E0CF91FAC0EB
:100494001F93CF93DF93C82F1BD1D82F803109F43A
:1004A4005BC061E083E0D13029F17ED0CF5FE1F021
:1004B4001D2F110F11600EC061E08DE096D060E039
:1004C40084E072D08FE59AEE0197F1F700C0000046
:1004D400C15051F061E084E067D041E0DD2361F375
:1004E400612F87E082D0EBCF60E083E0DF91CF9192
:1004F4001F915AC059D02FEF82E597E021508040D8
:100504009040E1F700C0000060E083E04DD02FEFA1
:1005140082E597E0215080409040E1F700C0000060
:1005240061E083E041D02FEF82E597E021508040E5
:100534009040E1F700C0000060E083E035D02FEF89
:1005440082E597E0215080409040E1F700C0000030
:10055400DF91CF911F91089543E063E08C2FDF91E9
:06056400CF911F918FC032
:10056A00539AE0EBF0E0808182608083E1EBF0E077
:10057A0080818160808399E69093B300559A84B50F
:0E058A00826084BD85B5816085BD97BD0895F2
:10059800882321F085B18F6085B9089585B1807F62
:0405A80085B9089574
:1005AC009FEF980F943078F445B1662369F0815031
:1005BC0021E030E0B90102C0660F771F8A95E2F79F
:1005CC00CB01842B85B9089521E030E0B90102C03C
:1005DC00660F771F9A95E2F7CB018095842385B936
:0205EC00089570
:1005EE00CF92DF92EF92FF921F93CF93DF93C82E9D
:1005FE00E62E142F842F6CD0812F6AD080910101AA
:10060E00882309F434C010920101812F61D0D12CBE
:10061E00C4E0D0E096010C2E02C0359527950A94C1
:10062E00E2F7812F20FF21C053D0219798F7F12CAC
:10063E00C5E0D0E004C0812F4BD0219768F0C701F0
:10064E000C2E02C0959587950A94E2F780FDF3CFA4
:10065E00812F5CD0219798F7812FDF91CF911F9139
:10066E00FF90EF90DF90CF906CC050D0DECF81E046
:0A067E0080930101812F4AD0CACFFA
:100688001F93CF93DF93C82F162FD42F61E0812FAC
:1006980089DFCF5FA9F061E084E084DF41E06D2F5E
:1006A8008FE0A1DF60E084E07DDF2FE788EC92E057
:1006B800215080409040E1F700C00000C15059F738
:0C06C80060E0812FDF91CF911F916CCF7B
:0A06D40086B1869580958F71089518
:1006DE00CF93C82F36D081EF96E00197F1F700C087
:1006EE000000C13079F0C23029F48091B0008061F1
:1006FE008093B00081EF96E00197F1F700C0000003
:0C070E00CF91089584B5806184BDF4CFC4
:10071A008130A9F0823029F49091B00090619093D1
:10072A00B000E1EFF6E03197F1F700C000000BD01E
:10073A0081EF96E00197F1F700C00000089594B5A3
:06074A00906194BDEECFAA
:10075000813051F0823009F008958091B0008F7E91
:100760008093B0005B98089584B58F7E84BD5D98BA
:020770000895EA
:0207720046CC73
:0C0774008F9381E0809300018F91189515
:100780001F921FB61F921124109200011F901FBECE
:040790001F90189509
:0C0794008F9382E0809300018F911895F4
:00000001FF
